:020000040000FA
:10000000602D00207903000081030000C52400005A
:100010008503000087030000890300000000000042
:100020000000000000000000000000008B03000042
:100030008D030000000000008F03000091360000D7
:10004000930300009503000097030000990300004C
:100050009B0300009D0300009F030000C9310000C6
:1000600001250000A5030000A7030000A90300006C
:10007000AB030000AD03000041170000B103000016
:10008000B3030000B5030000B7030000B90300008C
:10009000BB030000BD030000BF030000C10300005C
:1000A000C3030000C5030000C7030000C90300002C
:1000B000CB030000CD030000E1170000D1030000D6
:1000C000D3030000D5030000D9310000D90300009C
:1000D000DB03000019250000DF030000E10300003E
:1000E000E3030000E503000000000000E703000058
:1000F000E9030000EB030000ED030000EF03000044
:10010000F1030000F3030000F5030000F703000013
:100110000000000000000000F9030000FB030000E5
:10012000FD030000E9310000F93100000304000084
:100130000504000007040000090400000B0400008F
:1001400000000000000000000000000000000000AF
:1001500031250000492500001104000013040000AF
:10016000000000000000000000000000000000008F
:10017000000000000000000000000000000000007F
:10018000000000000000000000000000000000006F
:10019000000000000000000000000000000000005F
:1001A000000000000000000000000000000000004F
:1001B0001504000017040000190400001B040000CF
:1001C0001D0400001F04000021040000230400009F
:1001D0002504000027040000290400002B0400006F
:1001E0002D0400002F040000310400000000000076
:1001F0000000000033040000350400003704000054
:10020000390400003B040000000000000000000072
:100210003D0400003F0400004104000043040000CE
:100220004504000047040000490400004B0400009E
:100230004D0400004F04000051040000530400006E
:100240005504000057040000590400005B0400003E
:100250005D0400005F04000061040000630400000E
:1002600065040000670400006904000000F002F863
:1002700000F072F80AA090E8000C82448344AAF1CE
:100280000107DA4501D100F067F8AFF2090EBAE8CC
:100290000F0013F0010F18BFFB1A43F001031847BA
:1002A000107B0000307B00000A444FF0000C10F877
:1002B000013B13F0070408BF10F8014B1D1108BFE4
:1002C00010F8015B641E05D010F8016B641E01F884
:1002D000016BF9D113F0080F1EBF10F8014BAD1CD4
:1002E0000C1B09D16D1E58BF01F801CBFAD505E0F2
:1002F00014F8016B01F8016B6D1EF9D59142D6D34C
:10030000704700000023002400250026103A28BF73
:1003100078C1FBD8520728BF30C148BF0B60704777
:10032000662905F01083642900F02081752900F00A
:100330001D81632900F0A384002070471FB505F0DC
:10034000F8FA00F0BBFC04000020002104F0BEFD20
:10035000E0601FBD10B510BD00F0B4FD1146FFF701
:10036000EDFF03F073FD00F0D2FD03B4FFF7F2FFE1
:1003700003BC00F015FE00003F4880473F4800479F
:10038000FEE7FEE7FEE7FEE7FEE7FEE7FEE7FEE745
:10039000FEE7FEE7FEE7FEE7FEE7FEE7FEE7FEE735
:1003A000FEE7FEE7FEE7FEE7FEE7FEE7FEE7FEE725
:1003B000FEE7FEE7FEE7FEE7FEE7FEE7FEE7FEE715
:1003C000FEE7FEE7FEE7FEE7FEE7FEE7FEE7FEE705
:1003D000FEE7FEE7FEE7FEE7FEE7FEE7FEE7FEE7F5
:1003E000FEE7FEE7FEE7FEE7FEE7FEE7FEE7FEE7E5
:1003F000FEE7FEE7FEE7FEE7FEE7FEE7FEE7FEE7D5
:10040000FEE7FEE7FEE7FEE7FEE7FEE7FEE7FEE7C4
:10041000FEE7FEE7FEE7FEE7FEE7FEE7FEE7FEE7B4
:10042000FEE7FEE7FEE7FEE7FEE7FEE7FEE7FEE7A4
:10043000FEE7FEE7FEE7FEE7FEE7FEE7FEE7FEE794
:10044000FEE7FEE7FEE7FEE7FEE7FEE7FEE7FEE784
:10045000FEE7FEE7FEE7FEE7FEE7FEE7FEE7FEE774
:10046000FEE7FEE7FEE7FEE7FEE700000448054979
:10047000034A054B70470000953900006D020000EB
:1004800060230020602D0020602300200FB4044969
:1004900010B503AA029800F0FFFB10BC5DF814FB36
:1004A000A80100200FB41CB5074B06AA7B4469467F
:1004B0000090059800F0C1FB0020694600F0D0FBD9
:1004C0001CBC5DF814FB0000B107000070B50446C9
:1004D00085690068C10601D5302600E02026C007E6
:1004E00007D070BDD4E9012130469047206A401CF6
:1004F00020626D1EF6D570BD70B504468569007822
:10050000C00707D170BDD4E9012120209047206A9F
:10051000401C20626D1EF6D570BD70B50C460546B8
:10052000012A05D02878800600D5EA69002302E078
:10053000012305E05B1C934202D2E05C0028F9D164
:10054000A869E618C01AA861286A184428622846D3
:10055000FFF7BCFF04E0D5E9012114F8010B904737
:10056000B442F8D32846FFF7C7FF70BD2DE9F0412C
:100570000646002410687529314616A510D0AFF341
:100580000080002802DA404213A507E031688A079C
:1005900001D512A502E0490704D511A5012401E007
:1005A000AFF3008000210A2206F1240709E0B0FB26
:1005B000F2FCB0FBF2F302FB1C003030785418461A
:1005C000491C0028F3D123462A463046BDE8F041B5
:1005D00000F0C6B8000000002D0000002B00000055
:1005E000200000002DE9F05F894604464FF0000A24
:1005F000DFF824B1FB44C0F820A02046E16888471A
:1006000000287DD0252806D0D4E901219047206A12
:10061000401C2062F1E700255F462046E1688847DC
:100620002028064607DB312E05D2B81910F8200C19
:1006300008B10543F1E7A80701D525F00405C4F882
:100640001CA00027C4F818A02A2E09D0304603F0B9
:1006500055FA38B304EB8708303EC8F8186019E043
:1006600059F8041B204604EB87029161E168884732
:10067000012F064618D1E069002820DA25F0200570
:100680001DE0D8F8180000EB800006EB4000303881
:10069000C8F818002046E1688847064603F02EFA9D
:1006A0000028EED1012F0AD02E2E08D12046E16875
:1006B00088477F1C0646022F45F02005C4DBA06951
:1006C000002803DA404245F00105A061E80701D0A7
:1006D00025F01005A6B1A6F14100192802D8203650
:1006E00045F400654A463146204625604D46FFF7F1
:1006F00017FE60B1012807D0ED1D25F0070000E0CE
:1007000007E000F1080978E705F1040975E73046CC
:100710007AE7206ABDE8F09F1077000010B5431C0F
:1007200002E010F8011B71B18107FAD14FF00132DC
:1007300002C88C1A8C4314EAC211F9D0C01A0A06F6
:1007400003D0C01E10BDC01A10BD0A0401D0801E07
:1007500010BD0902FCD0401E10BD704770477047A5
:100760002DE9F0470D4699469246044600F12408CB
:100770000168880604D5E06921F01001216000E0DD
:100780000120A84201DD471B00E00027A1697A197A
:1007900002EB0900081AA0612078C00602D42046A6
:1007A000FFF794FE002608E0D4E901211AF80600BC
:1007B0009047206A401C761C20624E45F4DB20786E
:1007C000C0060AD52046FFF781FE06E0D4E90121E4
:1007D00030209047206A401C2062381EA7F1010794
:1007E000F4DC07E0D4E9012118F805009047206AFD
:1007F000401C2062281EA5F10105F3DC2046FFF70E
:100800007BFE2078000602D50220BDE8F08701209B
:10081000FBE770472DE9FF4F0C461E464FF0FF37B0
:100820008BB0D2E90001DDF860800A908A46C1F3FE
:100830000A5505B93D46002108464FF00000BAF1BF
:10084000000F00F4400005DA00EB80004FF4400197
:1008500001EA50004FEA9059B9F1010F00DDB946A5
:100860000A9850EA4A000ED044F61050A5F2FF351F
:1008700045432F14B8F1000F1ED07542291E1EDD0E
:10088000C9F100021CE0B8F1010F4FF0000001D0E7
:10089000302103E0F24305E02154401CB042FBDB71
:1008A00030460022002121540B99C1F80880C1E98B
:1008B00000200FB0BDE8F08FBD1B6D1CDEE74A467F
:1008C00000DA694206A800F083FA06AB93E8070055
:1008D00003AB83E8070050460A9900F068FB8DE8F7
:1008E0000700A0F500501F3800900398002D0ADD86
:1008F00042F21F014A460844002303A903906846B8
:1009000000F0D1FD09E0A0F500504A461F38002351
:1009100003A90390684600F0DBFD8DE807000004A2
:10092000000C03D04FF0FF30410800E01046B8F152
:10093000000F03D00022009215461EE0751E05D45C
:1009400000F0C0F9303262556D1EF9D5B346012270
:10095000084302D000227F1C04E02078302801D117
:1009600000227F1E002A099784D01DE0112D07DA8E
:1009700000F0A8F9303262556D1C50EA0102F5D141
:10098000084302D00098C8B10EE00021681E05E0BF
:10099000235C625C63542254401E491C8142F7DB95
:1009A000AB46A81B401E0990002004F80B000B98D2
:1009B000099AC0F80880C0E9002B7AE711264FF0A9
:1009C000000857E72DE9F04F88460446D21D22F073
:1009D000070191B0D1E90001CDE90A0103F050F817
:1009E00002460B98C00F01D02D2007E02068810738
:1009F00001D52B2002E0202101EAC000032A099042
:100A000001D0072A05DB03464146204600F0A0F945
:100A10000BE12078800601D5E06900E00620B8F1FE
:100A2000650F814606D0B8F1660F18D0B8F1670F90
:100A300070D131E00020B9F1110F009001DB1123DA
:100A400001E009F101030AAA01A90CA8FFF7E2FEDF
:100A5000DDE90C70002609F10105834647E001201D
:100A60004B4600904FF000470AAA01A90CA8FFF7D7
:100A7000D1FEDDE90DB00C995D46002610B909F1F3
:100A800001000D18B9EB050003D4C0F1FF3609F1E0
:100A90000105A5EB09002BE0B9F1010F01DA4FF0D8
:100AA00001090020B9F1110F0090484601DD112322
:100AB00000E003460AAA01A90CA8FFF7ABFEDDE996
:100AC0000C704D4600268346207800070AD4AB45BB
:100AD00000DA5D4601A8012D04DD411911F8011C61
:100AE000302907D04F4502DA17F1040F04DA01204C
:100AF00082460FE06D1EEEE7002F02DCED1B3E4448
:100B000003E0781CA84200DD7D1CB81B00F1010A3F
:100B10004FF000472078000703D4AA4501DB4FF0CF
:100B2000FF3A0021B7F1004F0DF143088DF8431053
:100B300024D002202B23002F01DA7F422D230A210B
:100B4000021EA0F1010000DC5FB197FBF1FC97FBF6
:100B5000F1F201FB1C7C17460CF1300C08F801CDBA
:100B6000EEE7A8F1010003702188090501D54521B0
:100B700000E06521A0F1010800F8011C09980FA907
:100B8000A1EB0807FF1D00B10120411901EBEA703C
:100B9000A1693844081A401EA0612078C00602D41A
:100BA0002046FFF793FC099828B1D4E9012190472A
:100BB000206A401C20622078C00622D52046FFF71C
:100BC00085FC1EE0002E04DBB34502DD01A8805D3C
:100BD00000E03020D4E901219047206A401C2062C7
:100BE000761CAAF101005FEA000A0AD100F066F85B
:100BF000C0680168405CD4E901219047206A401C2C
:100C00002062281EA5F10105DCDC07E0D4E9012102
:100C100018F8010B9047206A401C2062381EA7F18B
:100C20000107F3DC2046FFF767FC032011B041E623
:100C300001694A1C02610878704700B58FB0CDE9A0
:100C400001310021059105497944CDE90310114690
:100C50006846FFF7C7FC0FB000BD0000E5FFFFFFCF
:100C60000A6802F8010B0A60704710B5436913B1B6
:100C7000AFF3008001E0FFF750FC012010BD1278B7
:100C800000F124010A7000224A700122EDE7116888
:100C90004FF0FF32E9E70000074B70B50D467B448B
:100CA000FFF7CBFF0446284600F004F910B14FF0DF
:100CB000FF3070BD204670BD692E000000487047AF
:100CC0001C23002030B5B0F10A024FEA900E71F1FA
:100CD00000034EEA817EB0EB0E0061EB91014FEA1A
:100CE000101E4EEA017E10EB0E0041EB11114FEA8F
:100CF000102E4EEA016E10EB0E0041EB11214FEA6F
:100D0000104E4EEA014E10EB0E0041EB114140181F
:100D100041F100014FEAD00040EA41704FEAD101B1
:100D200010EB80054FEA810444EA907444EB01041F
:100D30006D1944EB0404521BA3414FF0000348BF5C
:100D40000A3200D530BD401C41F1000130BD000029
:100D50002DE9F0411F46044603260168072A01F4E5
:100D6000006004DB08B116A505E016A503E008B194
:100D700015A500E015A521F010002060A069C01E97
:100D8000A0610FB1401EA0612046FFF79FFB4FB14D
:100D9000D4E9012138469047206A401C2062C01CDB
:100DA000206206E0206AFAE7D4E9012115F8010B78
:100DB0009047761EF8D22046FFF79EFBBDE8F081F3
:100DC0004E414E006E616E00494E4600696E6600EF
:100DD0002DE9F047814616468AB0354878440DC85B
:100DE0008DE80D0032487844801C03AC0DC884E8BF
:100DF0000D0041F69B300844372190FBF1F290FB47
:100E0000F1F5A5F1800501FB12041B3C02D56442FB
:100E1000012000E00020DFF898A080460027FA4477
:100E2000AAF1BE0A0EE0E0070AD03246684607EB98
:100E3000470101230AEB810100F04AFB8DE807001E
:100E400064107F1C002CEED1194F7F44AE3F19E097
:100E5000E80715D007EB04100DF1180A90E80E0012
:100E60008AE80E00C068F04201D198190890324615
:100E7000012306A903A800F02BFB03AB83E80700BE
:100E80006D10641C002DE3D14FF00103324669461A
:100E9000B8F1000F03A802D000F005FB01E000F05C
:100EA00017FBC9E90001C9F808200AB0BDE8F087BE
:100EB000B86F0000007B00F080007047004870476A
:100EC000FC2200207546FFF7F9FFAE460500694693
:100ED000534620F00700854618B020B5FFF7C6FA44
:100EE000BDE820404FF000064FF000074FF000082B
:100EF0004FF0000B21F00701AC46ACE8C009ACE8AC
:100F0000C009ACE8C009ACE8C0098D46704710B50F
:100F10000446AFF300802046BDE81040FFF725BA35
:100F20004FF0013C50F8042B51F8043B9A4221D178
:100F3000A2EB0C03934313EACC1317D150F8042B04
:100F400051F8043B9A4215D1A2EB0C03934313EAE8
:100F5000CC130BD150F8042B51F8043B9A4209D121
:100F6000A2EB0C03934313EACC13DBD04FF0000049
:100F7000704700BFD01A01BAB1FA81F101F018012F
:100F800022FA01F0CB40C1F12001DBB2C0B2C01A9D
:100F90002CFA01F3D11A914311EAC311E6D170473B
:100FA00001491820ABBEFEE72600020070475FEA49
:100FB000400C08BF91F0000F4FEA8C234FEAC1228A
:100FC00043EA51514FEA1C5018BF00F5F0404FEA78
:100FD000300018BF41F000415FEA6C5C00F02980EE
:100FE000BCF1FF3F08BF40F080407047130C06BFC4
:100FF00012044FF0100C4FF0000C130E04BF12023D
:101000000CF1080C130F04BF12010CF1040C930F28
:1010100004BF92000CF1020CD30F04BF52000CF17C
:10102000010C11464FF00002A0F11F00A0EB0C00D4
:10103000704711F0004F08BF704731F000413FF496
:10104000D5AF0B0C06BF09044FF0100C4FF0000C8D
:101050000B0E04BF09020CF1080C0B0F04BF0901B1
:101060000CF1040C8B0F04BF89000CF1020CCB0FA8
:1010700004BF49000CF1010CCCF12003A0EB0C00E3
:1010800022FA03F302FA0CF241EA030100F1010033
:10109000704720F07F4C80EA030023F07F47ACEBE1
:1010A000070303F57C5300F0004003F1FF032DE933
:1010B00080494FEA154B09B44FEA144325EA0B4E19
:1010C00024EA03480FF2042606EB132749083E786A
:1010D0005FEA320203FB0667C7F5000707FB06F667
:1010E0004FEA54374FEAD64606F1020607FB066C74
:1010F000CCF1005C4FEA1C472CEA074C07FB06F4D6
:101100000CFB06F504EB15464FEA961634BF00209B
:101110004FF000404FEAD13706FB07FC4FEA1C4C6A
:101120000CFB0BF7D21B03FB0CF761EB07010CFB6D
:101130000EF7B0EB074072EB17420CFB08F734BF19
:10114000A2EB0742B2EB074261EB17414FEA0C44B6
:101150004FEA910706FB07FC4FEA1C4C0CFB0BF710
:10116000B0EBC74072EB573203FB0CF734BFA2EB76
:10117000C742B2EBC74261EB57310CFB0EF7B0EB45
:10118000C70072EB57720CFB08F734BFA2EBC70223
:10119000B2EBC70261EB5771039F4FEA816141EAED
:1011A000921104EBCC044FEAD1374FEA826206FB7E
:1011B00007FC42EA90124FEA80604FEA1C4C0CFB9D
:1011C0000BF7D21B03FB0CF761EB07010CFB0EF7CF
:1011D000B0EB074072EB17420CFB08F734BFA2EBF1
:1011E0000742B2EB074261EB17414FEA8C554FEAD9
:1011F000910704EB9C2406FB07FC4FEA1C4C0CFBFC
:101200000BF7B0EBC74072EB573203FB0CF734BF60
:10121000A2EBC742B2EBC74261EB57310CFB0EF7B2
:10122000B0EBC70072EB57720CFB08F734BFA2EBB0
:10123000C702B2EBC70261EB577115EB4C254FEAC1
:10124000816141EA92114FEA82624FEAD13742EA64
:10125000901206FB07FC44F100044FEA80604FEA5D
:101260001C4C0CFB0BF7D21B03FB0CF761EB0701CB
:101270000CFB0EF7B0EB074072EB17420CFB08F7C4
:1012800034BFA2EB0742B2EB074261EB174115EB0B
:101290001C154FEA813141EA92414FEA823242EA1B
:1012A00090424FEA80304FEA0C7644F1000448EA5D
:1012B00003434EEA0B484FF0000EB2EB080C71EB03
:1012C000030724BF624639464EEB0E0E4FF0000B6B
:1012D0000018524149414BEB0B0BB2EB080C71EB80
:1012E00003077BF1000B24BF624639464EEB0E0E1E
:1012F0004FF0000B0018524149414BEB0B0BB2EB86
:10130000080C71EB03077BF1000B24BF62463946E2
:101310004EEB0E0E51EA020718BF46F0010616EB1F
:101320000E7655F1000254F1000103D5BDE88901A4
:10133000BDE80088BDE88901BDE80048B619524102
:1013400041EB0101A3F10103704780807F7E7D7C2A
:101350007B7A7978777676757473727171706F6E47
:101360006E6D6C6C6B6A6A696868676666656464F2
:10137000636362616160605F5F5E5E5D5D5C5C5B7C
:101380005B5A5A59595858575756565555555454EB
:10139000535352525251515050504F4F4F4E4E4D49
:1013A0004D4D4C4C4C4B4B4B4A4A4A494949484895
:1013B00048474747474646464545454444444443D5
:1013C00043434342424242414141002B9C4630D478
:1013D00077002BD01CB54FEA370703B44FF010004D
:1013E0004FF01001BAF1000F06D0BCF1000FDCBFC6
:1013F00040F0080040F008014FF000000FBCBDE8CD
:1014000010400BF1010BBBF1010F08BF5FEA17079A
:1014100022BF12F1010211F101014FF0004143F12D
:10142000000300F0004043EA00007047F9D357087A
:10143000D0E746EA064613F1400F4FEA16461FDD95
:1014400013F1200FDFBF16430A46002120335B4211
:10145000BED0C3F1200746EA064602FA07F74FEA74
:10146000164646EA0706C3F1200722FA03F201FAFC
:1014700007F721FA03F14FF0000342EA0702A7E75A
:1014800046EA020646EA06464FEA164646EA0106DC
:10149000BCBF46EA0646360C4FF000034FF0000290
:1014A0004FF0000194E72DE9804C9A46934670B4C2
:1014B00091E8380007C831EA400C48BF34EA430CD1
:1014C00003D5FFF7E6FDFFF780FFF0BCBDE8008C19
:1014D0002DE9804C9A46934670B491E8380007C8CD
:1014E00010F0804F08BF13F0804F03D100F005F8D3
:1014F000FFF76BFFF0BCBDE8008C20F07F4780EA6F
:10150000030023F07F4C07EB0C03A3F57C5300F0A2
:101510000040A3F1FE0392F0000F00F0B38095F0BD
:10152000000F00F077802DE901494FEA11404FEAA2
:10153000144621EA004800FB06FC24EA064708FBA3
:1015400006F607FB08F800FB07F718EB06484CEB1C
:10155000164C4FEA124B18EB07484FEA15464CEB76
:10156000174022EA0B4E0BFB06FC25EA06470EFB52
:1015700006F607FB0EFE0BFB07F71EEB064E4CEBC9
:10158000164C4FF000061EEB074E4CEB174B18EBBA
:101590000B0840F1000018EB0E0B58EB000840F16F
:1015A00000008F1A4FF000013CBFC943661B14BFF7
:1015B000B5EB040C00213CBFC943F61B4FEA1744AE
:1015C0004EEA8E0E27EA04454FEA1C4704FB0762E9
:1015D0002CEA074C05FB07F70CFB05F604FB0CFC9B
:1015E00016EB074642EB174216EB0C4642EB1C4249
:1015F0001BEB060658EB0202414146EA9E0601D566
:10160000BDE80189B619524141EB0101A3F1010383
:10161000BDE801894FEA14454FEA114724EA05461F
:1016200021EA074C05FB07F406FB07F70CFB06F164
:1016300005FB0CFC11EB074144EB17444FEA124742
:1016400011EB0C4144EB1C4422EA074C05FB07F26A
:1016500006FB07F70CFB06F605FB0CFC16EB074632
:1016600042EB174216EB0C4642EB1C456A1854F14C
:10167000000148BF7047B619524141EB0101A3F187
:101680000103704795F0000F37D04FEA11424FEA3F
:10169000144721EA024624EA074C02FB07F106FB45
:1016A00007F70CFB06F402FB0CFC14EB074441EBC0
:1016B00017414FEA154714EB0C4441EB1C4125EA56
:1016C000074C02FB07F506FB07F70CFB06F602FBCF
:1016D0000CFC16EB074645EB174516EB0C4645EBA5
:1016E0001C42121951F1000148BF7047B61952410E
:1016F00041EB0101A3F1010370474FEA14454FEAA2
:10170000114724EA054621EA074C05FB07F106FBD1
:1017100007F70CFB06F24FF0000605FB0CFC12EB82
:10172000074241EB174112EB0C4251EB1C4148BF01
:101730007047921841EB0101A3F1010370470000CB
:1017400010B503484468204600F004F810BD0000BE
:101750000080034000F0010129B10349C96841F04C
:101760000101014AD1607047008003407CB5054605
:101770000C460E4805603820207108208DF80400C2
:1017800000208DF8050002200090217901ABE122B4
:101790000648006800F0B0FF01200549086000BF5E
:1017A000034800680128FBD07CBD0000B001002088
:1017B0008400002000F0010129B10121054A1160D7
:1017C0001421054A11600549096841F01101034AD5
:1017D000116070470C010020740000201C5402406E
:1017E00010B5034804682046FFF7E4FF10BD000071
:1017F000145402400149C86070470000C401002031
:101800000149086170470000C4010020F0B52DEDCA
:10181000068BA1B00746FD4800F0E0FA002000F07A
:10182000EBFD28237C220321084600F075FBF848D5
:1018300000F0F4FD002000F0DFFD87237C224C2126
:10184000032000F069FBF24800F0E8FD08230C22B9
:10185000F049F1A000F08EFD1B2307226FF07F41BD
:10186000F3A000F087FDF64800F0D8FDF54800F041
:10187000C3FD46232B222E21172000F04DFBF248FA
:101880000278F2A101A8FEF70DFE32231E220021EC
:1018900001A800F06FFDEE4800F0AEFD462349229E
:1018A0002E21352000F038FBEA480278E7A101A894
:1018B000FEF7F8FD32233C22002101A800F05AFD7A
:1018C000E54800F099FD462367222E21532000F0C1
:1018D00023FBE2480278DDA101A8FEF7E3FD3223F5
:1018E0005A22002101A800F045FDDD4890ED000AD4
:1018F00010EE100A03F0ACFF41EC1A0B9FEDD90B70
:1019000053EC102B03F02AFB41EC180BD74890ED59
:10191000000A10EE100A03F09BFF41EC190B53EC88
:10192000182B03F075FE2CD2D148006848BBD14873
:101930000068012825D0B64800F070FD5523142218
:10194000C049CDA000F016FD69231C224FF6FF719F
:10195000CDA000F00FFDC24890ED000A10EE100A75
:1019600003F076FF41EC180B53EC182BC9A101A82A
:10197000FEF798FD78232B224FF6FF7101A800F0A7
:10198000F9FCB74890ED000A10EE100A03F060FF72
:1019900041EC1A0B9FEDB30B53EC102B03F06EFED2
:1019A00041EC180BB14890ED000A10EE100A03F05C
:1019B0004FFF41EC190B53EC182B03F0EFFC25D231
:1019C000934800F02BFD552314229E49AAA000F055
:1019D000D1FC69231C224FF47F01B0A000F0CAFCA7
:1019E0009F4890ED000A10EE100A03F031FF41EC21
:1019F000180B53EC182BA7A101A8FEF753FD782371
:101A00002B224FF47F0101A800F0B4FCA648006827
:101A10008A284FD1A548007823284BD1A4480068D4
:101A2000002847D193480068012843D1784800F046
:101A3000F5FCA04800684FF4FA71B0FBF1F09E4944
:101A400051F8204050220921204600F0F9F9994828
:101A500000684FF4FA71B0FBF1F0974951F820405B
:101A600050223721204600F0EBF9924800684FF4ED
:101A7000FA71B0FBF1F0904951F8204050226421F6
:101A8000204600F0DDF9614800F0B6FC87237D2296
:101A90006721002000F040FA69230A224FF4004138
:101AA00086A000F067FC78230C224FF4004187A049
:101AB00000F060FC7C4800688A2867D07B4800788A
:101AC000232863D18548006800285FD169480068F1
:101AD00000285BD14E4800F0A1FC4FF47F0000F0DD
:101AE0008BFC5A2319225921072000F015FA5A239A
:101AF00035225921232000F00FFA5A231A46592182
:101B0000482000F009FA5A2376225921642000F077
:101B100003FA3E4800F070FC87237D2267210020F5
:101B200000F0FAF9692309224FF47F016CA000F05C
:101B300021FC78231E224FF47F016EA000F01AFCD6
:101B40004C48006810BB5A48006801281ED16C48F8
:101B50000068D8B96B484078022817D15F48006800
:101B6000012813D12A4800F059FC6FF07F4000F0A3
:101B700043FC822376226E21072000F0CDF97323E7
:101B800012224FF08B1160A000F0F4FB394800687E
:101B900000283AD146480068012836D158480068E4
:101BA00098BB5848407802282FD14C48006801283B
:101BB0002BD1174800F032FC6FF07F4000F01CFC86
:101BC000822376226E21072000F0A6F939480068AA
:101BD0004FF4FA71B0FBF1F04F4951F82040522216
:101BE0000921204600F02CF9324800684FF4FA71C0
:101BF000B0FBF1F0484951F82040522237212046ED
:101C000000F01EF92B48006888E09BE0C4E4FF0068
:101C1000106C0000D0E040002D2D20204469676941
:101C200074616C204C6F636B20202D2D0000000030
:101C3000454E5445522050415353574F5244000093
:101C4000F476000000A5FF005C0000202563000082
:101C5000ED9564005D0000203C14DC005E00002077
:101C60007801002000000000000000406C0100200E
:101C70001801002058010020414C455254212041B8
:101C80004C4552542100000054454D502044524FC1
:101C90005000000020252E316643000054454D5071
:101CA00020524953450000004C01002068000020EC
:101CB0000C01002020000020840100204143434506
:101CC0005353204752414E544544000057454C431E
:101CD0004F4D4520484F4D45000000006001002059
:101CE00021204143434553532044454E4945442018
:101CF0002100000054525920414741494E00000044
:101D00007400002094000020444F4F5220434C4F59
:101D100053494E47000000007C0100204FF4FA7147
:101D2000B0FBF1F0254951F82040522264212046B1
:101D300000F086F8732312224FF08B11AFF23800B7
:101D400000F018FB002000F057FB9F237F228C211E
:101D5000002000F0E1F81A4800F060FB194800F09C
:101D600063FB194800683C21B0FBF1F201FB12044F
:101D700015480068B0FBF1F0B0FBF1F201FB120571
:101D8000114800684FF46161B0FBF1F01821B0FB1D
:101D9000F1F201FB12062B4632460CA101A8009479
:101DA000FEF780FB912323226FF07F4101A800F012
:101DB000E1FA21B0BDEC068BF0BD00007C010020F3
:101DC000106C0000FFFFE000280000202530327575
:101DD0003A253032753A2530327500004FF478419B
:101DE0004FF4FC6201EA102102EA50121143C0F3E1
:101DF000C4000143114810B4C2682AB94FF47F42AD
:101E000002EA012242EA11218268D2E90BC4936CF2
:101E1000906B04FB1C339C45C8BF1846401E3CBF5A
:101E200010BC7047936B8342DCBF10BC7047536B90
:101E300023F81010401EF5D210BC7047C4010020DA
:101E40002DE9F04730F8025B324F30F8023B30F8B2
:101E500002CB044605FB03F64819451ED018431E65
:101E6000B868BCF1000F4162C0E90415C0E906235F
:101E700004D0BCF1010F15D0BDE8F087751E38BF46
:101E8000BDE8F0872088F968002908BF40BA00F053
:101E9000DDFA002808BFBDE8F087A41C6D1EF1D252
:101EA000BDE8F08734F8029B34F8028BB9F1000FDB
:101EB0001CBFA9F1010085B214D0F868002808BF42
:101EC00098FA98F8404600F0C1FA002808BFBDE82B
:101ED000F087681E85B2F0D2A6EB0906002EE1D18C
:101EE000BDE8F087B8F1010085B20FD3F96820880A
:101EF000002908BF40BA00F0A9FA002808BFBDE8D1
:101F0000F087691E8DB204F10204EFD2A6EB080639
:101F1000E4E70000C401002070B5DFF850C0904233
:101F2000BCF80440A5B2D4BF994270BDDCF80C40A7
:101F3000002C08BF6DBADCF808C00024CCF82400DF
:101F4000CCE90402CCE90613101A591A401C491CAA
:101F500000FB01F6002ED8BF70BD284600F076FACF
:101F600000281CBF641CB442F7DB70BDC401002014
:101F700070B5034615489142B0F804C01FFA8CF5BD
:101F8000C8BF70BDD0F814C0BCF1000F08BF70BD51
:101F9000C468002C08BF6DBA03EB0C048068641E93
:101FA0004162103080E81E00501A401C00FB0CF605
:101FB0000024002ED8BF70BD284600F047FA002844
:101FC0001CBF641CB442F7DB70BD0000C4010020DC
:101FD00070B52A4C4FF00005A06890F84C1011F035
:101FE000010F0BD1056205630560026CC0E9012594
:101FF000826A41F00301C26080F84C10426C816833
:1020000091420DDB056290F84C1021F0010180F83F
:102010004C102069002808BF70BDBDE87040004723
:1020200090F84C00C0F34000FFF7F0FBA06890F878
:102030004C1021F0020180F84C100560826A816822
:1020400011448160C3681A44C260026B521C02636F
:10205000426C91420ADB891A036C826B406BBDE8CB
:10206000704001FB1321490000F07CBB816B406B89
:10207000BDE87040490000F075BB0000C4010020BD
:1020800010B4019CC0E910124A43826490F84C20BD
:10209000C46322F0040C620892FBF1F24363826293
:1020A00002FB01F383630023C0E90031C0E902327F
:1020B00003632CF0010380F84C305143C1620249A4
:1020C000886010BC70470000C40100202DE9FF4F5C
:1020D0009B464FF478424FF4FC6302EA112203EA74
:1020E00051131A43C1F3C401114391B0A04A0D9199
:1020F000A0F12003118B5E2B89B20E9111680A9119
:1021000011460968D1F8C4109DBF0A9B03EB40003B
:1021100030F83C0C0A9888BF008C0E1800243078E8
:102120000225A146A246022840F31E8190480BEBEF
:102130000A018068406C814200F316810A98007899
:1021400010B1012832D047E031780027A94213DDD1
:10215000705D09F118029040B0FA80F00828C8BFFD
:10216000C9F1080007448144B9F1080F04D16D1C7E
:102170004FF00009A942EBDC4FF00008A9422BDD2B
:10218000705D09F118029040C043B0FA80F0082851
:10219000C8BFC9F1080080448144B9F1080F1BD1C0
:1021A0006D1C4FF00009A942EADC15E0705D20B11A
:1021B000070900F00F086D1C0EE07019407810F050
:1021C000800F05D0400600274FEA9058AD1C5CE018
:1021D000C7004FF00008AD1C002F56D0644B0BEB2E
:1021E0000A0099684A6C82424FDB012F26DD727823
:1021F00004F1010C624521DD04EB070C9445D4BFCA
:102200003A46121B0292002814DB91F84C1011F090
:10221000040F0FD056490E9A49680B9154494A60F1
:102220001399029A21440A44521EFFF7A1FE504816
:102230000B99416002983F1A04441EE0139A121948
:1022400019D4D1F840C09445A8BF002813DB91F8F9
:102250004CC01CF0040F0ED04A620A61C1E905208F
:10226000C861D868002803BF0E9840BA0F900F9835
:1022700000F0ECF8C8B3641C7F1E7078A04204BF65
:1022800000240AF1010A002FA8D1B8F1000F67D08D
:10229000374A0BEB0A0091684B6C834260DBB8F164
:1022A000010F27DD737804F1010C634522DD04EB97
:1022B00008019942D4BF4146191B029100280FDB47
:1022C0002B492B4A49680B910D9951601399029A39
:1022D00021440A44521EFFF74BFE25480B994160EA
:1022E0000298A8EB0008044431E0FFE715B0012094
:1022F000BDE8F08F139B1B1926D4D1F840C09C4534
:10230000A8BF002820DB0B9396F801C0139B0AF1AD
:10231000010E634404F1010C9C4433785B449E44F9
:102320000B9B4B620B9BC1F81CE00B61C1E905C024
:102330000D980F90D068002803BF0D9840BA0F90F9
:102340000F9800F083F878B1641CA8F10108707848
:10235000A04204BF00240AF1010AB8F1000F97D18E
:102360003078A8423FF7E2AE707815B0BDE8F08F44
:10237000C40100202DE9F05F1C4617468B46064637
:10238000FEF7CCF9DFF86CA0C1B23D46DAF8008068
:10239000B1F1010938BFBDE8F09F00BF16F8010B8D
:1023A0000D2808BF3D4620D00A2804BF98F8020037
:1023B00004441AD0DAF8081098F801300A6CD21ADE
:1023C000AA4203DC98F802203D461444C968A142A1
:1023D000B8BFBDE8F09F23462A465946FFF776FE70
:1023E000002814BF0544BDE8F09FB9F10109D5D21A
:1023F000BDE8F09FC40100204FF478414FF4FC6227
:1024000001EA102102EA50121143C0F3C40008434C
:102410000149486070470000C4010020014908607C
:1024200070470000C40100204FF478414FF4FC6273
:1024300001EA102102EA50121143C0F3C40008431C
:102440000149886170470000C40100201C49896867
:102450008B68CA69934204DCD1F80CC08A69624572
:1024600001DD0020704710B4D1F800C04C69A445CC
:1024700012DCD1F810C04C68A4450DDC93420EDC90
:10248000D21A0B6C02FB03C20A628B6B9342C4BF6D
:102490004B6B23F8120002DC10BC00207047D1E91E
:1024A0000402904205DB486A401E08618869401CAE
:1024B00088610869401C086110BC01207047000059
:1024C000C401002009A000BF00BFBFF34F8F0A481E
:1024D000006800F4E06009490843001D06490860EF
:1024E000BFF34F8F00BF00BF00BFFDE748617264BC
:1024F000206661756C740A000CED00E00000FA05BE
:1025000010B50448006818B10249086801F005FBDD
:1025100010BD0000EC22002010B50448406818B13E
:102520000249486801F0F9FA10BD0000EC220020D1
:1025300010B50448806818B10249886801F0EDFAC6
:1025400010BD0000EC22002010B50448C06818B18E
:102550000249C86801F0E1FA10BD0000EC22002039
:10256000416270477CB505460C4600200190174833
:1025700005602020207000208DF8040001200090CC
:10258000217801AB0A221148006800F0B5F801205B
:102590000F49086000BF0E4800680128FBD00020EA
:1025A0008DF804008DF80500022001AB00222021E7
:1025B00000900648006800F09FF801200449086078
:1025C00000BF034800680128FBD07CBDB00100209B
:1025D00084000020F0B504460D46164635B1012DA5
:1025E00007D0022D08D0032D0CD108E0374908226E
:1025F0000BE03749252208E03649442205E03649F8
:10260000452202E04FF0FF30F0BD00BF2160626064
:10261000324840F82540086A40F010000862052E54
:102620002CD2DFE806F0030B131B23002C480068B4
:102630002C4FB0FBF7F0401EC3B222E028480068E0
:10264000294FB0FBF7F0401EC3B21AE024480068DF
:10265000264FB0FBF7F0401EC3B212E020480068DE
:10266000234FB0FBF7F0401EC3B20AE01C480068DD
:10267000204FB0FBF7F0401EC3B202E04FF0FF3036
:10268000C2E700BFC86803F07F073843C860C86866
:1026900020F08000C860086940F001000861104621
:1026A000002810DB00BF00BF00F01F0C012707FA55
:1026B0000CF74FEA501C4FEA8C0C0CF1E02CCCF8D4
:1026C000007100BF00BF00BF00209DE70000024076
:1026D000001002400020024000300240EC220020A6
:1026E000AC01002080841E0000127A00001BB7009D
:1026F0000024F400002D310170B50C46049D0168E2
:10270000012646618360C560002606618661C66158
:10271000FE2606EA44060E608A6000BF4E6806F098
:102720004006002EFAD14E6846F003064E6070BD9A
:1027300010B51E2001F0BCF90E2001F0B9F910BD52
:102740000149086070470000A0010020034A126898
:102750000260034A12680A60704700009801002076
:102760009C01002070B504460D461548006840F0F5
:1027700040004FF04021C1F8FC030846D0F8FC03AC
:1027800020F00800C1F8FC032B46002221460D482A
:10279000006800F058FF0C48006878B900BF0B488B
:1027A00000680028FBD00020084908600448006841
:1027B00040F008004FF04021C1F8FC0370BD00005C
:1027C000FC43004090010020A00100209401002063
:1027D00070B505460C46AB480560AB49284600F08D
:1027E00013FDAA48006840F008004FF04021C1F8EE
:1027F000FC030846D0F8FC0340F08000C1F8FC035D
:10280000052001F05DFA4FF04020D0F8FC0320F0E5
:1028100080009E490860052001F052FA4FF04020E8
:10282000D0F8FC0340F0800098490860052001F0D2
:1028300047FA4FF04020D0F8FC0340F008004FF07A
:102840004021C1F8FC03012001F04EFA0A2001F0FA
:1028500037FA012001F048FA0A2001F031FA11207C
:1028600001F042FA782001F02BFA292001F03CFA1D
:10287000782001F025FA3A2001F036FA052001F01F
:1028800067FA0A2001F01CFAB12001F02DFA0020AD
:102890007F490870062048700320887003217C4817
:1028A00001F08AFA0A2001F00BFA362001F01CFA36
:1028B0004CB9802077490860A02077490860102033
:1028C00001F046FA20E0012C09D1A02071490860EE
:1028D000802071490860A02001F03AFA14E0022C2F
:1028E00009D180206B490860A0206B490860C02096
:1028F00001F02EFA08E0A0206649086080206649B1
:102900000860602001F024FAB42001F0EDF9002005
:1029100001F01EFAC02001F0E7F902205C490870BE
:102920007020487002215A4801F046FA0A2001F04E
:10293000C7F9C12001F0D8F9052001F009FAC22039
:1029400001F0D2F90A205249087000204870022193
:102950004F4801F031FAC52001F0C6F93C204C493E
:102960000870382048700221494801F025FA0A20F1
:1029700001F0A6F9E02001F0B7F9092044490870F8
:1029800016204870092088702020C8702120087106
:102990001B204871132088711920C87117200872F4
:1029A000152048721E2088722B20C87204200873DC
:1029B00005204873022088730E20C8731021344804
:1029C00001F0FAF9E12001F08FF90B20304908708D
:1029D00014204870082088701E20C87022200871BA
:1029E0001D204871182088711E20C8711B20087294
:1029F0001A204872242088722B20C872062008737F
:102A00004873022088730F20C8731021204801F0FA
:102A1000D3F90A2001F054F92A2001F065F90020C9
:102A20001B490870487088701A480078401EC870AA
:102A30000421174801F0C0F92B2001F055F90020BE
:102A4000134908704870887013480078401EC87099
:102A500004210F4801F0B0F9132001F045F90A20D4
:102A600001F02EF92C2001F03FF9142001F028F993
:102A7000292001F039F9782001F022F92C2001F009
:102A800033F970BD90010020193E0000FC43004066
:102A90009C220020980100209C010020FE48006834
:102AA00040F00100FC490860081F006840F0010088
:102AB000091F086000BFF948006800F00100002805
:102AC000F9D000BFF548001F006800F001000028A1
:102AD000F8D0F1481838006840F03F00EE49183946
:102AE000086000BFED481838006800F001000028B9
:102AF000F8D000BFE9481838006800F0020000284C
:102B0000F8D000BFE5481838006800F0040000283D
:102B1000F8D000BFE1481838006800F0080000282D
:102B2000F8D0DD481438006840F03F00DA49143925
:102B3000086000BFD9481438006800F00100002880
:102B4000F8D000BFD5481438006800F00200002813
:102B5000F8D000BFD1481438006800F00400002805
:102B6000F8D000BFCD481438006800F008000028F5
:102B7000F8D000BFC9481438006800F010000028E1
:102B8000F8D000BFC5481438006800F020000028C5
:102B9000F8D0C348006840F00400C1490860C1484B
:102BA000006840F00400BF490860BD48203000685C
:102BB00020F00400BA4920310860B748001D0068C1
:102BC00040F00100B449091D086000BFB348001D72
:102BD000006800F001000028F8D0AF481C30006801
:102BE00040F00100AC491C31086000BFAB481C300C
:102BF000006800F001000028F8D0AB48006840F001
:102C00003000A9490860A948006840F03000A74991
:102C10000860A5480838006820F03000A24908394B
:102C20000860A148001D006840F030009E49091D61
:102C300008609C480830006840F01000994908314D
:102C4000086097482030006840F010009449203117
:102C500008609448006820F010009249086091488C
:102C60000C30006840F010008E490C31086090482C
:102C7000006840F00E008E4908608E48006840F001
:102C80000E008C4908608A480838006840F00E0041
:102C900087490839086087482030006820F00E0016
:102CA0008449203108608448006840F0100082495F
:102CB00008608248006840F0100080490860784849
:102CC000006840F04000764908607648006840F0AF
:102CD0004000744908607A487549091F0860081D5A
:102CE000006840F01100091D08607248006820F07B
:102CF0001100704908606E480838006840F0110003
:102D00006B49083908606B482030006820F01100DA
:102D100068492031086066480830006820F01100DA
:102D200063490831086062481438006840F01100B7
:102D30005F49143908605F481030006820F01100C6
:102D40005C49103108605B480830006820F01100D1
:102D5000584908310860081F006820F01100091F59
:102D6000086054480C30006820F0110051490C31C3
:102D70000860081D006840F01100091D08605048F7
:102D80004E49091D08604C48006840F0C8004A4997
:102D900008604A48006840F0C80048490860464852
:102DA0002030006820F0C8004349203108604348C3
:102DB00010300068434908404049103108603F48DE
:102DC000006840F024003D4908603B48203000681E
:102DD00040F024003849203108603848103000683D
:102DE00039490840354910310860084600683749BC
:102DF00008433249103108602948006840F0020059
:102E0000274908602748006840F00200254908600B
:102E100024480830006840F00C002249083108605E
:102E20001F482030006840F00C001D492031086028
:102E30001C48006840F00C001A49086018480068F7
:102E400040F00C0016490860081F006820F00C00D4
:102E50001F49C1F8FC0313481038006840F008000F
:102E60001049103908600F481030006840F44C5089
:102E70000C49103108600B481438006840F00C0011
:102E80000849143908600E480C49091D0860081DDE
:102E9000006840F003001DE01CE60F401CEA0F40F4
:102EA000005400401C55004024450240204402408C
:102EB0002455024000540240004400401C4500409C
:102EC0004B434F4CFF0FFF00FFF00FFF00022000AD
:102ED00000500040091D08608248006840F003006F
:102EE000804908607F48FC30006840F003007D495D
:102EF000FC3108607C48006820F003007A490860D3
:102F0000081D006820F0FF00091D086008460068E1
:102F100040F0110008607548006B20F00100734913
:102F200008637348006820F00F0071490860084684
:102F3000006808606D48006B20F020006B49086352
:102F4000052048621B2088620846C06A20F06000A5
:102F5000C8620846C06A40F04200C8620846C06ABB
:102F600040F00400C8620846C06A20F00800C86249
:102F70000846C06A40F01000C8620846006B40F482
:102F8000807008630846006B40F0010008635948F0
:102F9000006840F00F00574908605748006840F04B
:102FA0000F005549086053482030006820F00F009A
:102FB0005049203108605048103000686FF30F000E
:102FC0004D49103108604D48006820F00E004B4913
:102FD00008604B48006840F00E00494908604748C7
:102FE0002030006820F00E00444920310860444839
:102FF000103000684349084041491031086040489A
:103000000C38006840F00E003D490C3908603E481D
:10301000006840F0F0003C4908603C48006840F01F
:10302000F0003A49086038482030006820F0F0008D
:1030300035492031086035481030006880B2334986
:10304000103108603248006840F0200030490860C4
:103050003048006820F470002E4908600846006877
:1030600040F4E00008602C48C06820F001002A49C4
:10307000C8600846006840F00400086008464068E0
:1030800040F0020048600846406820F010004860A8
:10309000224888620F2088630846806940F001005A
:1030A00088610846406A40F0010048620846C068EE
:1030B00040F00100C86016482038006840F0200049
:1030C00013492039086013481038006840F0200088
:1030D0001049103908600E48006820F020000C49A3
:1030E00008607047204400402845004000C0004070
:1030F000C8CF0040007400401C75004000440240EE
:103100001C450240FF00F0FF006400401C650040C9
:10311000205400402C55004000000340F7240100DB
:103120002DE9F04104462568EE68D5F8188006F0D0
:10313000040028B3A86887B294F82C0000F00100BE
:1031400028B9E06948B16269E1698F5405E0606AB5
:1031500018B16169606A20F811706069401C606193
:103160006069A16A88420BDB686920F0040068612D
:10317000686820F002006860206B08B1206B80470F
:1031800006F0020010B906F00100D0B12069A16A72
:10319000884204DB686920F00800686111E094F857
:1031A0002C0000F0010020B92169A069405CA860F2
:1031B00004E02169206A30F81100A8602069401CF1
:1031C0002061BDE8F081000010B502490868FFF7F2
:1031D000A7FF10BDDC22002010B502494868FFF7A8
:1031E0009FFF10BDDC22002010B502498868FFF760
:1031F00097FF10BDDC22002010B50249C868FFF718
:103200008FFF10BDDC2200200246116370470000D2
:103210002DE9F04F84460E4690469946624636B1F7
:10322000012E07D0022E08D0032E0CD108E0A149B0
:1032300007230CE0A049222309E0A049222306E04D
:103240009F49222303E04FF0FF30BDE8F08F00BF1D
:10325000116053609B4840F82620486820F0020027
:103260004860486820F004004860B9F1000F07D0BA
:10327000B9F1010F09D1086820F04000086007E0AB
:10328000086840F04000086002E06FF00100DCE7F1
:1032900000BF0998022802D003280AD104E0086878
:1032A00020F08000086007E0086840F080000860B7
:1032B00002E06FF00200C8E700BFD1F8C80F20F0AD
:1032C0000F00C1F8C80FD1F8C80FC1F8C80F7E4869
:1032D000D0F800A09AFBF8F5022D02DA6FF0040096
:1032E000B3E7FE2D02DC2F4600240AE0FE27FE2075
:1032F00095FBF0F0441EB4F5807F02DD6FF0040012
:10330000A3E7086820F47F400860086840EA0420CA
:1033100008600F61086820F00F0008600C6092F8E8
:103320002C0020F0010082F82C000A98001F0D28C4
:1033300071D2DFE800F0070E151C232A38465462CC
:10334000717F8D00086840F0030008600420D060A1
:103350008FE0086840F0040008600520D06088E035
:10336000086840F0050008600620D06081E0086829
:1033700040F0060008600720D0607AE0086840F05E
:10338000070008600820D06073E0086840F008007B
:1033900008600920D06092F82C0020F00100401C49
:1033A00082F82C0065E0086840F0090008600A20F7
:1033B000D06092F82C0020F00100401C82F82C0014
:1033C00057E0086840F00A0008600B20D06092F8CF
:1033D0002C0020F00100401C82F82C0049E0086815
:1033E00040F00B0008600C20D06092F82C0020F018
:1033F0000100401C82F82C003BE0086840F00C0003
:1034000008600D20D06092F82C0020F00100401CD4
:1034100082F82C002DE029E0086840F00D000860DB
:103420000E20D06092F82C0020F00100401C82F8A1
:103430002C001EE0086840F00E0008600F20D060ED
:1034400092F82C0020F00100401C82F82C0010E0C3
:10345000086840F00F0008601020D06092F82C003F
:1034600020F00100401C82F82C0002E06FF0030005
:10347000EBE600BF486840F010004860486840F044
:10348000020048601846002811DB00BF00BF00F0B2
:103490001F0E4FF0010B0BFA0EFB4FEA501E4FEAC6
:1034A0008E0E0EF1E02ECEF800B100BF00BF00BFBF
:1034B0000020CAE6008000400090004000A00040CC
:1034C00000B00040DC220020AC01002030B50346F3
:1034D0000C4619460A68506820F0020050601068D7
:1034E00020F00F00106091F82C0020F0010081F80E
:1034F0002C00201F0D2871D2DFE800F0070E151CEC
:10350000232A38465462717F8D00106840F0030012
:1035100010600420C8608FE0106840F00400106064
:103520000520C86088E0106840F0050010600620A3
:10353000C86081E0106840F0060010600720C86095
:103540007AE0106840F0070010600820C86073E05F
:10355000106840F0080010600920C86091F82C0045
:1035600020F00100401C81F82C0065E0106840F05C
:10357000090010600A20C86091F82C0020F00100BA
:10358000401C81F82C0057E0106840F00A001060E1
:103590000B20C86091F82C0020F00100401C81F83D
:1035A0002C0049E0106840F00B0010600C20C8604F
:1035B00091F82C0020F00100401C81F82C003BE029
:1035C000106840F00C0010600D20C86091F82C00CD
:1035D00020F00100401C81F82C002DE029E010684B
:1035E00040F00D0010600E20C86091F82C0020F013
:1035F0000100401C81F82C001EE0106840F00E0015
:1036000010600F20C86091F82C0020F00100401CD1
:1036100081F82C0010E0106840F00F0010601020BE
:10362000C86091F82C0020F00100401C81F82C00AB
:1036300002E06FF0030030BD00BF506840F00200B0
:1036400050600020F7E770B504460D46204601683B
:1036500000260661466190F82C6006F0010636B936
:10366000C26185618362866936788E6006E0426257
:1036700005625E108662066A36888E600669761C70
:1036800006610C264E614E6846F002064E6070BD23
:103690006D48006868B16C480068401E6A4908605F
:1036A0000846006828B90120684908600A20664970
:1036B000086001206649086066480068401C65494A
:1036C000086008460068B0F5967F05D10120624980
:1036D000086000205F49086060480068401C5F493E
:1036E000086008460068B0F5967F05D101205C4966
:1036F00008600020594908605A48006820B15948BC
:103700000068401E574908605648006838B9564856
:10371000006820F010004FF04021C1F8FC0353482E
:10372000006820B151480068401E50490860504868
:103730000068401C4E49086008460068B0F57A7F72
:1037400014D101204B4908604B49086000204849CA
:1037500008604A480068401C4849086008460068FC
:103760004749884202D9002044490860454800681A
:10377000012804D144480088401C4349088043483C
:103780000068012804D142480088401C4049088054
:1037900040480068012804D13F480088401C3E4949
:1037A000088039480088B0F57A7F05D101203B496F
:1037B000086000203449088037480088B0F57A7FD7
:1037C00005D101203649086000203349088030487F
:1037D0000088B0F57A7F05D10120324908600020C9
:1037E0002B4908803048006860B12F480068401EAF
:1037F0002D4908600846006820B90A2008600120A9
:103800002A4908602A48006860B129480068401EBB
:10381000274908600846006820B932200860012066
:10382000244908602448006868B123480068401EA5
:10383000214908600846006828B901201F4908602E
:103840000A201D49086070476401002068010020BB
:10385000140000209C00002010010020A000002087
:10386000A400002098000020FC43004074000020C9
:10387000200000201C00002018000020280000204C
:10388000805101000001002004010020EC00002014
:10389000DE000020E8000020DC00002008010020FD
:1038A000D8000020E000002034000020300000207C
:1038B00064000020600000203C0100204001002046
:1038C000304A106E116F01F00042DAB301F4006269
:1038D00022BB2D4A2D4B1A6001F080428AB91A464C
:1038E000126852081A6000F48002002A49D01A4671
:1038F0001368C1F3C552521CB3FBF2F2234B1A609A
:103900003FE000F48002E2B3204A1368C1F386521C
:10391000521CB3FBF2F21D4B1A6032E01C4AC0F39A
:10392000841352F82320194B1A6000F4800242B32A
:103930001A461368C1F3C552521CB3FBF2F2134B83
:103940001A601EE0FFE700F400623AB1104AC0F3CB
:10395000841352F823200D4B1A6006E00A4A0B4BE1
:103960001A601A46126852081A6000F4800242B1C6
:10397000064A1368C0F3C352521CB3FBF2F2034B66
:103980001A60704700E00F400084D717AC01002098
:10399000BC7700000CB53748006840F4700035492A
:1039A00008603548006E0190019820F001000190F8
:1039B00031490198086600BF2F48006D00F48070FF
:1039C0000028F9D04FF480702B498865019820F0C9
:1039D0003000019001980190019820F4F860019066
:1039E000019840F4A8600190019820F0F0600190E7
:1039F000019840F480000190019820F4205001903B
:103A0000019820F460200190019801900846006F11
:103A100040F0004008670846006F0090009840F0B2
:103A200080400090009820F480000090009820F0E2
:103A3000FE500090009820F07000009000980090D8
:103A4000009840F080700090009820F400500090A2
:103A5000019808660098086700BF0848006800F0F1
:103A600001000028F9D00448006F20F400600249EA
:103A700008670CBD88ED00E000E00F4068E10F40F2
:103A800003B401984100009850EAC12018BF0420F7
:103A90004A0D18BF40F0010040F2FF72B2EB515FD7
:103AA00008BF40F00200012808BF052002B070479F
:103AB00000280DDB00BF00BF00F01F020121914074
:103AC0004209920002F1E022C2F8001100BF00BFDB
:103AD0007047000010B5002804DB4A07130E054AA2
:103AE000135406E04A07140E034A00F00F031B1F8D
:103AF000D45410BD00E400E018ED00E030380A288E
:103B000001D2012070470020704770B504460D4671
:103B1000E0B201F071F9204670BD2DE9F041044694
:103B20002568AF6907F00100002841D00120E86155
:103B30006E68286800F00100002868D106F00100D6
:103B4000002835D106F0020028B306F0100020B995
:103B500006F00800E8B1206AD8B906F0100048B9AC
:103B6000686840F00400686000BF686800F04000CA
:103B70000028FAD106F0040008B1012020620020DC
:103B800060610120E061606A08B1606A8047BDE859
:103B9000F08100202062A06980B1286840F0010017
:103BA0002860E068012804D8686840F00700686071
:103BB0007FE0686840F00B0068607AE02169A068E7
:103BC000405CA8602069401C2061D4E90310884251
:103BD00004D2686840F0010068606AE0D4E903102C
:103BE000884204D1686840F00500686061E0002008
:103BF000606106F0020010B10120E06101E00020E8
:103C0000E061606A002854D0606A804751E0D4E9DE
:103C10000301401E81422ED206F00200A8B106F038
:103C2000100048B9686840F00400686000BF686828
:103C300000F040000028FAD1002060610120E0611E
:103C4000606A08B1606A8047A1E7A8682269A16834
:103C500088542069401C2061D4E90301401E814240
:103C600004D2686840F00900686022E0686840F0AB
:103C7000050068601DE006F0020040B100206061B0
:103C8000606A08B1606A80470120E0617FE7A86848
:103C90002269A168885406F0020010B10120E06199
:103CA00001E00020E06100206061606A08B1606AA4
:103CB000804707F0020008B10220E86100BF66E714
:103CC00008B508490968414342F21072B1FBF2F1AC
:103CD000009100E000BF00994A1E00920029F9D12E
:103CE00008BD0000AC01002010B504461448047063
:103CF0001448006820F040004FF04021C1F8FC0358
:103D00000846D0F8FC0320F00800C1F8FC030123AA
:103D100000220B490C480068FFF795FC00BF0B48D8
:103D200000680028FBD000200849086005480068AA
:103D300040F008004FF04021C1F8FC0310BD000026
:103D4000A4010020FC4300409001002094010020C9
:103D500010B50446144804701448006840F0400050
:103D60004FF04021C1F8FC030846D0F8FC0320F0D6
:103D70000800C1F8FC03012300220B490C4800682D
:103D8000FFF761FC00BF0B4800680028FBD0002053
:103D9000084908600548006840F008004FF04021DD
:103DA000C1F8FC0310BD0000A5010020FC43004049
:103DB000900100209401002070B504460D46134880
:103DC000006840F040004FF04021C1F8FC03084675
:103DD000D0F8FC0320F00800C1F8FC032B460022B9
:103DE00021460B480068FFF72EFC00BF0948006819
:103DF0000028FBD00020074908600448006840F014
:103E000008004FF04021C1F8FC0370BDFC430040A6
:103E1000900100209401002010B50948006818B9ED
:103E20000120084908600AE0054800688047064804
:103E3000006840F008004FF04021C1F8FC0310BDBD
:103E4000A001002094010020FC4300402DED068BD2
:103E500082B0FEF723FEFFF733FDFE4800684FF403
:103E60007A71B0FBF1F4601EB0F1807F00D30FE0F7
:103E7000601E4FF0E021486107214FF0FF30FFF74F
:103E800029FE00204FF0E02188610720086100BF73
:103E900000210720FFF71EFE082002210123EE4A21
:103EA000CDE900100021ED48FFF7B2F900F038FF2E
:103EB00000F016FDFEF73CFC01220021E848FEF769
:103EC00089FBE849E648FEF74BFB01210820FFF794
:103ED00001FEE549E248FDF749FCE449E048FEF708
:103EE00041FBFEF725FC0020E14908704FF400700B
:103EF000E0490860E0A0FCF7C9FADC484178E3A09B
:103F0000FCF7C4FA00BFE64890ED000A10EE100A74
:103F100001F09EFC41EC1A0B9FEDE20B53EC102BD1
:103F200001F01CF841EC180BE04890ED000A10EE8F
:103F3000100A01F08DFC41EC190B53EC182B01F029
:103F400067FB08D20120DA490860DA490860DA49DB
:103F50000860DA490860D54890ED000A10EE100AB2
:103F600001F076FC41EC180BCD4890ED000A10EE04
:103F7000100A01F06DFC41EC1A0B9FEDCA0B53ECDB
:103F8000102B01F07BFB41EC190B53EC182B01F0CB
:103F900005FA30D2C24890ED000A10EE100A01F086
:103FA00057FC41EC1A0B9FEDBF0B53EC102B00F0AC
:103FB000D5FF41EC180BBD4890ED000A10EE100A39
:103FC00001F046FC41EC190B53EC182B01F0E6F91B
:103FD00011D2BB48006870B9BA48006858B9BA48ED
:103FE000006840B90120B2490860B8490860B14989
:103FF0000860B7490860AA4890ED000A10EE100A60
:1040000001F026FC41EC1A0B9FEDA60B53EC102B94
:1040100001F034FB41EC180BA44890ED000A10EEBF
:10402000100A01F015FC41EC190B53EC182B01F0B0
:10403000B5F90BD2A748006840B901209D49086036
:10404000A54908609A490860A44908609948006831
:10405000012856D1002097490860A148006801282E
:1040600004D100209F498863082088639C48006829
:1040700010B900209B4988639B480068012804D13F
:10408000002098498863062088639748006828B90B
:104090009348006810B900209249886393480068EB
:1040A000012806D10020914908608E4988630220CA
:1040B000886387480068012807D18248006820B9D2
:1040C000002083490860874988637B48006801288D
:1040D00009D17C48006830B90020774908608149DF
:1040E0008863042088637C480068012809D17548EA
:1040F000006830B90020784908607A4988630A204E
:1041000088636B48006801287ED1002068490860F8
:1041100077480068012814D169480068012810D147
:10412000002073490860664908607248006840F0E2
:1041300010004FF04021C1F8FC034FF4FA706E49B3
:1041400008606E480068012812D15D4800680128A7
:104150000ED10020694908606648006840F01000F0
:104160004FF04021C1F8FC034FF4617062490860D0
:1041700055480068012813D15148006880B90020D3
:10418000514908604E4908605A48006840F01000E4
:104190004FF04021C1F8FC034FF4FA705649086013
:1041A0004648006801280ED1002044490860514863
:1041B000006840F010004FF04021C1F8FC034FF4BC
:1041C00061704D4908604548006801280ED1002003
:1041D000424908604748006840F010004FF0402115
:1041E000C1F8FC034FF4617043490860444800681B
:1041F00001280FD10020424908603E48006840F085
:1042000010004FF0402100E00BE0C1F8FC036420F7
:10421000394908603B480068012802D1002039492B
:10422000086039480068012876D1384800680028BD
:1042300072D102200D4948703548006800286BD0C3
:104240000C480068002867D032480068012863D114
:10425000002062E0AC01002040787D01E0010020F8
:1042600064220020AD4D00008C220020940000202C
:1042700004000020440100200A0D48656C6C6F208A
:10428000576F726C6421200A0D000000436F756E39
:1042900074204D6F64653A2025640A0D000000000B
:1042A0007801002000000000000000406C010020A8
:1042B000A80000201C0100202C010020BC000020D0
:1042C000B400002038010020B0000020C000002011
:1042D000300100201801002034010020C40000201B
:1042E000200100200050024024010020280100206D
:1042F000AC000020FC43004098000020B8000020E3
:10430000C8000020CC000020580100200C01002033
:10431000400100207000002046E0FE490860FE4990
:1043200008600120FD490860FD490860FD490860FA
:10433000FD490860FD490860FD48007800F042FD35
:10434000FB480078401CFA490870084600780828A5
:1043500001D100200870F7480068401EF549086048
:104360000846006800BB0020ED490860ED49086080
:104370000120F14908600020F0490860F049086018
:10438000F0490860F0490860F04908602D20F049C4
:104390000870F0490870F04908700020EF49086083
:1043A0004FF40070E3490860E4480068002856D1E3
:1043B000EB480068002852D10220EA494870D548ED
:1043C000006800284BD0DB480068002847D0DC4854
:1043D0000068012843D10020CE490860CE4908601A
:1043E0000120CE490860E0490860CE4908600020FD
:1043F000CD4908600120CD4908600020CD49086002
:104400000846006858BB0120C44908600020C5491F
:104410000860D6490860C44908600120D449086092
:104420000020D4490860C1490860CE494870C3499A
:104430000860C3490860C3490860C3490860C349AC
:1044400008602D20C2490870C2490870C24908702E
:104450000020C24908604FF40070B6490860C648A1
:10446000006801280ED1B548006801280AD1BC486F
:10447000006838B90020C04908600120AA490860D6
:10448000BE490860BE480068012813D1AB480068E7
:1044900080B9B348006868B90020B94908600120B4
:1044A000B8490860A0490860A04908609B490860B5
:1044B000AD490860A0480068012805D19F48006800
:1044C00010B90120B04908609C48006800286CD1F0
:1044D000A3480068012868D1AC480068002864D16E
:1044E00095480068012860D19E48407802285CD138
:1044F00001208A4908609D49086086480068E8B341
:104500008C480068D0B300208249086001208249AD
:1045100008600020844908600120844908608448BC
:10452000007800F04FFC82480078401C80490870F9
:1045300008460078082801D1002008707D480068EE
:10454000401E7C49086008460068B8B900207A49D6
:1045500008603C208E490880822082498870C020F3
:10456000C8708C4800F054FC00207E4948707449A3
:104570000860894908607A49086000E015E0012078
:104580006649086000207949086066490860012092
:1045900065490860764908600020764908606349EB
:1045A00008604FF40070634908606448006860B9AF
:1045B0006B480068012808D17448006828B9694828
:1045C000407810B9002053490860744800680128F9
:1045D0000AD1822063498870C020C8706D4800F0FD
:1045E00017FC00206D49086067480068012807D162
:1045F000002065490860012051490860664908604B
:104600006748006803280DD1F92056498870C020FA
:10461000C870604800F0FCFB0120624908600A2075
:10462000614908805F480068012837D100205C4953
:1046300008605E4908605E490860012052490860D0
:104640005C480068012829D100205A490860564872
:10465000008818B954480088534908805248008897
:1046600020B151480088401E4F4908804E480088BC
:104670000A2190FBF1F03B4988704B4800880A21E1
:1046800090FBF1F201FB12003649C870414800F07E
:10469000BFFB012024490860474908604248008860
:1046A00038B90A20404908800120444908603B4944
:1046B000086042480068012807D100203F4908608F
:1046C0003849086001203E490860394800680128DF
:1046D00016D12E48006898B93548006801280FD1D6
:1046E00000203349086001203049086034480068E0
:1046F000012805D10020324908603C202449088067
:104700002A48006801287DD10020244908602D48EE
:10471000006859E040010020480100201C010020F1
:104720002001002038010020A8000020B400002053
:1047300004000020440100206001002058010020F6
:10474000700000205800002054000020500000207D
:104750005C0000205D0000205E000020540100206D
:104760000C010020940000202801002024010020DA
:10477000B0000020C000002018010020AC00002084
:104780007C000020B80000208C0100207400002074
:10479000D20000206422002080000020E4000020DD
:1047A00078000020EC000020D4000020E800002069
:1047B000F0000020E0000020C8000020F8000020E9
:1047C000FC000020D800002001282BD10020364911
:1047D00008603648008818B9344800883349088092
:1047E0003248008820B131480088401E2F49088097
:1047F0002E4800880A2190FBF1F02D4988702B4843
:10480000008800E00EE00A2190FBF1F201FB1200AB
:104810002749C870274800F0FBFA012026490860A4
:104820002649086026480068012809D1002024494B
:1048300008601E4800881D49088000202149086042
:104840001A48008820B901201F4908601C490860E7
:104850001E48006820B100201C49086000F028F9BB
:104860001B48006848B11B48006830B10020184957
:10487000086018490860FDF7ABFB1748006800287E
:104880003FF441AB1548006800F48030012800D1A6
:1048900000E0002000287FF436AB0F49086000F0EC
:1048A00059F8FFF730BB0000D8000020D2000020EC
:1048B0009400002064220020A8000020C8000020EE
:1048C000F4000020E80000208C010020600000209F
:1048D000300000203C0000206801002000800340E0
:1048E0001A48006820F0010018490860084640692D
:1048F00048611748006840F001001549086003202E
:10490000124908620846006C40F008000864084636
:10491000006C40F0900008640846006C40F4206091
:1049200008640846406C40F4007048640846006B18
:1049300040F0050008630846006840F00100086088
:104940000846806A40F0010088627047008003409A
:10495000C48F034070B52DED068B4248806C84B245
:104960004048806C85B23F48806C86B2304600F08B
:1049700001FD41EC1A0B9FED3C0B53EC102B00F0AA
:104980007DFE41EC190B9FED3A0B53EC102B00F020
:1049900099FB41EC180B00F0AFFA00EE100A364814
:1049A00080ED000A284600F0E5FC41EC1A0B9FED73
:1049B000330B53EC102B00F085FB41EC190B9FEDF2
:1049C000310B53EC102B00F025FD41EC180B00F0DF
:1049D00093FA00EE100A2D4880ED000A204600F000
:1049E000C9FC41EC1A0B9FED2A0B53EC102B00F085
:1049F00069FB41EC190B9FED230B53EC102B00F0DE
:104A000009FD41EC180B00F077FA00EE100A22487D
:104A100080ED000A90ED000A10EE100A00F018FF79
:104A200041EC1A0B9FED1D0B53EC102B00F04AFBD1
:104A300041EC190B9FED1B0B53EC102B00F01EFEED
:104A400041EC180B00F058FA00EE100A174880ED00
:104A5000000A0448806A40F0010002498862BDEC07
:104A6000068B70BD00800340000000000000F03F96
:104A70000000000000C052406C0100200000000057
:104A80000022B040000000000000594070010020EA
:104A9000CDCCCCCCCC54754074010020000000007B
:104AA0000000244000000000000034407801002095
:104AB00010B5814B1B6843F00F03804CC4F8FC33E6
:104AC0000021E4E07D4BDB6B01248C40A3437B4C55
:104AD000E36300BF00BF00BF794B1B68C3F3420014
:104AE00007287DD0774B1B68002B79D1764B1B684C
:104AF000002BFAD1754B1B68002BF6D1062801D18B
:104B0000002206E0052801D1012202E0032800D19D
:104B100002226C4B1B6883B901EB41036C4C2344AC
:104B20009B5C6C4C23702A236B4C23706B4C237062
:104B30006B4C23700123634C2360664B1B782A2B3C
:104B40006BD0644B1B78232B67D0664B1B68032B01
:104B500063DA644B1B685B1C624C236023461B6852
:104B6000012B18D15B4B1B78303B5F4C236001233A
:104B70005E4C23605C4B1B68092B03DD0023594C02
:104B8000236008E0534B1B78303B594C2360514B5A
:104B90001B78514C2370534B1B68022B19D14D4B82
:104BA0001B78303B534C2360514B1B68092B07D1BA
:104BB00023461B68092B03DD00234A4C236008E0D1
:104BC000444B1B78303B4C4C2360424B1B78434C8E
:104BD0002370444B1B68032B1FD13E4B1B7800E016
:104BE00054E0303B454C2360414B1B68092B0BD1F3
:104BF000414B1B68092B07D123461B68092B03DD9A
:104C00000023384C236008E0324B1B78303B3C4C8F
:104C10002360304B1B78324C23702E4B1B78232B98
:104C200034D10023314C2360314B1B68642463432F
:104C3000314C246804EB840403EB4403304C2468B7
:104C40002344304C236023461B688A2B0CD11E4B17
:104C50001B684BB901232C4C23602C4C23602C4C3B
:104C6000236008232B4CA363264B1B688A2B0AD096
:104C7000294B1B685B1C284C23600123274C2360B5
:104C80000023234C236001230F4C2360491C04297B
:104C9000FFF618AF072806D10A4B1B68012B02D17B
:104CA0000023084C2360044B1B6823F00F03034CC4
:104CB000C4F8FC3310BD0000FC73004000700040DD
:104CC000FC4302408000002070000020740000209F
:104CD00005000020680000205C0000205D0000202E
:104CE0005E0000205401002044000020F00000205D
:104CF0005000002048000020540000204C000020FC
:104D0000580000204C01002018010020F400002071
:104D10005801002000500240780000207C00002054
:104D20000EB502211648FDF753FD01A902A8FDF7B3
:104D30000DFD4FF40050134B00901348DDE90121A5
:104D4000FDF79EF910210E48FEF7C0FB0120FCF78D
:104D500051FDFF20FDF742F8FF20FDF765FB0B48F2
:104D6000FDF75CFB0A48FDF7EBFC0A48FCF748FD41
:104D70000948006840F002000849C1F8FC030EBD74
:104D8000E00100201402002014220020407C0000DA
:104D9000B94D0000A14D0000FC5300400050004000
:104DA00001200149086070473C00002000200149B3
:104DB00008607047840000200120014908607047A6
:104DC0003C0000200849096821B9084911F8301051
:104DD000074A116004490968012904D1054911F8FD
:104DE0003010034A1160704748010020B065000090
:104DF000FC630040F065000000BF0449896901F0D0
:104E000020010029F9D101490860704700C0004025
:104E10002DE9FC4107460C46A578E6780A2D1AD202
:104E2000DFE805F00507090B0D0F11131517C02555
:104E300011E0F9250FE0A4250DE0B0250BE0992540
:104E400009E0922507E0822505E0F82503E08025AA
:104E500001E0982500BF00BF0A2E1AD2DFE806F055
:104E60000507090B0D0F11131517C02611E0F926C0
:104E70000FE0A4260DE0B0260BE0992609E092266B
:104E800007E0822605E0F82603E0802601E0982668
:104E900000BF00BF8DF804508DF80560022000901F
:104EA000217801AB142207480068FDF725FC01209A
:104EB0000549086000BF044800680128FBD0BDE830
:104EC000FC810000B00100208400002010B5002902
:104ED0000AD00878002807D005487844FCF720F865
:104EE000002801D0002010BD0248784410BD000009
:104EF000F62E0000EE2E000021F00042A2F16052DA
:104F0000B2F5801F01F0004328BFD2F17F6C0BD9AE
:104F10005FEA001C43EAC20242EB507018BF7047C0
:104F200028BF20F001007047B2F5801FBCBF1846B3
:104F300070474FEA410C1CF5001F02D2084600F0F2
:104F4000FDBC70B500F010FB00000089FFF7F6BF54
:104F50004FF00040A0F580007047000010B591EAC6
:104F6000030F48BF83F0004300F19083841A71EB74
:104F7000030C05D2121943EB0C03001B61EB0C016F
:104F8000DFF824E14FEA1154A4EB135C1EEA430F4F
:104F900018BF9EEA445F73D023EA0E03DCF1200EB3
:104FA00021EA045143F4801332D322FA0CFE10EBB1
:104FB0000E0023FA0CFE41EB0E01CCF1200E03FA99
:104FC0000EFE10EB0E0051F10001B1F5801FCCF187
:104FD000200E32D201EB045112FA0EF2BDE810405D
:104FE00058BF7047401C38BF5FEA420218BF704785
:104FF000002814BF20F0010041F100014FEA4103F5
:1050000013F5001F38BF7047A1F1C04100F0FABA94
:10501000012A43EB0302ACF1200CDCF11F0E32BF7E
:105020004FF0000E23FA0CF310EB030041EB045198
:10503000B4EB115FD0D0A1EB045101F58011490808
:105040005FEA300001EB04510ED350F1000038BF8D
:1050500012FA0EFE08D1BDE81040C9E7401C38BF67
:105060005FEA4202CAD1C3E7BDE810404FEA4103FC
:1050700013F5001F38BF7047A1F1C04100F0C2BA5C
:105080009EEA445F08D011EA5E0FBDE8104004BFFD
:1050900001F0004100207047BDE8104070B500F0FD
:1050A00063FA00BF64FBBE3E0000E0FF491058BF3A
:1050B000C1F140415B1058BFC3F140438B42EFF355
:1050C000008070472DE9C04130B4DFF8A0C23CEA4F
:1050D000111418BF3CEA131400F0EC8081EA0305B8
:1050E0001CEA111444EAD57418BF1CEA131500F029
:1050F000C780A4EB05044FF0004545EAC12145EA0D
:10510000C32341EA505143EA525304F17F74994258
:1051100004F500344FEAC0204FEAC22208BF904293
:1051200000F09C804FEA13650FF24016765D4FEA5F
:10513000134506FB05F7C7F1807706FB07F74FEA33
:10514000D737A7FB03687642C8F58038A7FB06CEA1
:1051500038BFA8F1010807FB08E64FF0000EA6FBD8
:10516000028CE6FB03CEDCF1000CCEF1004E38BF22
:10517000AEF1010EA6FB0C584FF000074FF00005F2
:10518000E6FB0E87A1FB08C6A0FB07CE16EB0E06BA
:1051900045F10005E1FB076515F1E04E7EBFA4F582
:1051A00080345FEA46066D4116F1800745F100053F
:1051B0004FEA17274FEA066647EA0567A6F1DE467B
:1051C000B6F1805F4FEA15251FD9384624F0010C4F
:1051D00005EBC471BCF1FE6F01EB0C1102D8F0BC01
:1051E000BDE8008124425CBF01F5801E9EEAC47FB9
:1051F00002D4F0BCBDE80081244238D4F0BCA1F157
:10520000C041BDE8004100F0FDB94FEAD22242EAB8
:1052100043524FEAD323A7FB02864FEAD02040EA4D
:10522000415007FB03661EEA0E0F4FEAD12105FB32
:10523000026658BFA6EB0056B6EB00564FEA520E78
:105240004EEAC37E18EB0E0E56EB530EBDD518EB8F
:1052500002085E417F1C55F10005B6E74FF480154A
:105260004FF000074FF000064FF00008ADE7F0BC2C
:105270004FF0000001F1C04101F00041BDE80081A4
:1052800011EA0C1F0CEA131500D00CE013EA0C1FF6
:1052900000F025804FF00000F0BC81EA030101F02E
:1052A0000041BDE80081F0BCBDE8004181EA030196
:1052B00000F0A8B9F0BCBDE8004170B500F054F9A9
:1052C000097EFC3E00F007B881EA03014FF00000C0
:1052D00001F00041704781EA030100F093B9F0BC8E
:1052E000BDE800414FF0000021497047FFFDFBF988
:1052F000F7F5F4F2F0EEEDEBE9E8E6E4E3E1E0DE09
:10530000DDDBDAD8D7D5D4D3D1D0CFCDCCCBCAC87A
:10531000C7C6C5C4C2C1C0BFBEBDBCBBBAB9B8B7A1
:10532000B6B5B4B3B2B1B0AFAEADACABAAA9A8A894
:10533000A7A6A5A4A3A3A2A1A09F9F9E9D9C9C9B62
:105340009A9999989797969595949393929191900D
:105350008F8F8E8E8D8C8C8B8B8A8989888887879E
:105360008685858484838382828181800000FF0713
:105370000000F87FB0FA80F310FA03F10AD0C3F10D
:105380001D0303F580634FEA41504FEA035202EBDD
:10539000D12170474FF000007047000051EA030C24
:1053A00017D41CF5801F58BFBCF5801F00F1068084
:1053B000994218BF704708BF9042704707D711F550
:1053C000801F58BF13F5801F19D499427047894236
:1053D00070471CF5801F08D5BCF5801FF7D58B42A0
:1053E00018BF704708BF824270474FF4001C1CEB87
:1053F000410F38BF1CEB430F01D28B42704770B591
:1054000000F0B2F8922449004FF000514FF0805361
:10541000FFF74CBEDFF848C170B51CEA111E1EBF75
:105420001CEA13159EEA0C0F95EA0C0F00F06F8032
:1054300081EA030423EA4C134EEAD47E21EA4C119C
:1054400041F4801143F48013AE44A1FB024CA0FB55
:105450000365AEF17F7E361955EB0C05A1FB034CBD
:105460004CF10003A0FB021C16EB0C06654153F146
:105470000003094218BF46F0010613F4007F0BD168
:105480004FEA03314FEA0530340341EA155140EA4F
:1054900016506FF003020AE04FEAC3214FEAC5201D
:1054A000F40241EA555140EA56506FF0020202EB15
:1054B0002E4201EB025585EACE710AD05FEA440C18
:1054C00018BF24F0004450F1000041F1000120EA2F
:1054D000D47040F2FE7C624500D270BDA84214BF79
:1054E0004FF080444FF04044002E08BF0024BEF12E
:1054F000806FA8BFA1F1C041BDE8704080F28280FA
:105500004FF0000001F1C04101F0004170479EEAF8
:105510000C0F0CEA131518BF95EA0C0F06D04FF0CC
:10552000000081EA030E0EF0004170BD00F01CF88F
:105530008900013E00F007B800F009B84FEA430CBB
:105540005FEA5C5C08D081EA030100F05BB84FEAD7
:10555000410C5FEA5C5CF6D14FF0000001497047F6
:105560000000FF070000F87F0EF1020E2EF0030E80
:105570005EF8046B364205D4012A43EB030515F5AA
:10558000001F12D8012841EB010C1CF5001F0CD89C
:105590000ED14FEAD17C15F5001F0CEB4C0C0CF131
:1055A000020C08BF4CEBD37C04E04FF0080C01E088
:1055B0004FEAD37C0CEB4C0526FA05F606F00706FD
:1055C000B6F1040C06D20EEB860CBDE870404CF030
:1055D000010C6047DFE80CF0090B02024FF00041BC
:1055E0004FF00000A1F5002170BD194610460128BA
:1055F00051EB010418BFD4F5001484BF002001F062
:10560000004170BD0808A0F500114FEA3101704754
:1056100053EA010C17D41CF5801F58BFBCF5801F3E
:1056200000F106808B4218BF704708BF8242704766
:1056300007D713F5801F58BF11F5801F19D48B426F
:1056400070479B4270471CF5801F08D5BCF5801F32
:10565000F7D5994218BF704708BF904270474FF482
:10566000001C1CEB430F38BF1CEB410F01D29942C9
:1056700070470FB40CBC03BCFFF7C1BE10B591EA74
:10568000030F48BF83F000433FF570AC841A71EB01
:10569000030C07D212198CF0004C43EB0C03001BD7
:1056A00061EB0C01DFF8A4E14FEA1154A4EB135CA9
:1056B0001EEA430F18BF9EEA445F00F0B08023EA61
:1056C0006E03524221EA0451C3EB6E0338BF5B1EE6
:1056D000DCF1200E25D322FA0CFE10EB0E0043FA6B
:1056E0000CFE41EB0E01CCF1200E03FA0EFE10EB86
:1056F0000E0051F10001CCF1200E29D412FA0EF265
:1057000001EB0451BDE8104058BF7047401C1CBF5E
:10571000B2F1004F704700280CBF491C20F0010077
:10572000704712EB020E43EB030218BF4FF0010E5D
:105730004EEA4202ACF1200CDCF11E0E54D943FAC1
:105740000CFE10EB0E0051F1FF31CCF11E0ED5D541
:105750000EF1010E12FA0EFE404141EB010101EB88
:10576000445C5FEA5C5C10D910EBDE7001EB045125
:1057700038BFBEF1004FBDE8104018BF7047002889
:105780000CBF491C20F00100704730D24FEAD42CE6
:1057900011F5001124F400641BD0B1FA81F20B3A28
:1057A000A41AA41ED2F12003914030FA03F3194346
:1057B000904001EBCC71002C01EB0451BDE810408E
:1057C000A8BF704701F1C0414FF0000001F0004157
:1057D0007047B0FA80F310FA03F100D110BDE41A5B
:1057E000173C4805C90AE4E701EB045110BD491014
:1057F00001EB0451BDE810404FEA300002E04FF0E9
:10580000000170474A0008BF0042F8D0B2F5001FFF
:1058100028BF704701F000414FF0000070479EEA3A
:10582000445F07D011EA5E0FBDE8104004BF0021BD
:1058300000207047BDE8104070B5FFF795FE00BF2F
:1058400040DFF63E83F00041104670470000E0FF65
:1058500043004FEAD30C4FEA3C0C43401FBF4007C4
:105860000CF1605113F0FE4F70471CF0006F03D134
:1058700000200CF0004170470CF0004343EA5070E8
:1058800010B540EACC0000F00EF800BF0000009216
:105890004FEA0001FFF7B6BE4FF000414FF00000A5
:1058A000A1F5002170470EF1020E2EF0030E5EF8F6
:1058B000044B244204D44FEA4102B2F17F4F11D885
:1058C0004FEA4003B3F17F4F0CD80ED14FEAD07CA2
:1058D000B2F17F4F0CEB4C0C0CF1020C08BF4CEBFF
:1058E000D17C04E04FF0080C01E04FEAD17C0CEBD6
:1058F0004C0324FA03F404F00704B4F1040C06D2B8
:105900000EEB840CBDE810404CF0010C6047DFE862
:105910000CF0070802024FF00040A0F5800010BD17
:105920000846420018BFD2F1807288BF00F00040E4
:1059300010BD4FF04070E1EE100A7047FF2141EAC0
:10594000D050C0057047FBF73DB8000012001300AF
:105950000100030000000000040020000000C31844
:10596000494A0300CB5A00000300EB5A8A52042133
:1059700002000000000001004108050000000000D6
:105980000D0020002842CB5A652941082000000064
:105990004108E3188A52EB5A8210000002002000EE
:1059A000020000000000040061082C638631200022
:1059B00006000000000004002000C3182C634529E5
:1059C000030000000000030020000C6324210200FB
:1059D00000000000010061080400000000000A004F
:1059E00041082000000061082C63C318000020005B
:1059F000694AA631020000000000060020000000F5
:105A000020006529863161080200000002002000A4
:105A1000000006002421CB5A200061088A52410868
:105A20000400000000000500494A0842C739694ADD
:105A300020000400000000000600AA522421284291
:105A4000A631000020000200000000000200A210A9
:105A5000694A0200000000000400284224210000DE
:105A600020000200000000000400E318694ACB5A3D
:105A7000A2100200000000000400200000006108E5
:105A800028420200000000000300A631042120008B
:105A900004000000000004002C63EB5A000020000A
:105AA0000300000000000200E7394D6B02004529A9
:105AB00000000400EB5A694A41082000030000007E
:105AC000000002008A52694A0400000000000A0037
:105AD0002421CB5A0421652986316529494AA631FA
